:020000040800F2
:100000001005002099010008A1010008A3010008C3
:10001000A5010008A7010008A901000800000000D0
:1000200000000000000000000000000001010008C6
:10003000AD01000800000000450100082904000887
:10004000B3010008B3010008B3010008B3010008C0
:10005000B3010008B3010008B3010008B3010008B0
:10006000B3010008B3010008B3010008B3010008A0
:10007000B3010008B3010008B3010008B301000890
:10008000B3010008B3010008B3010008B301000880
:10009000B3010008B3010008B3010008B301000870
:1000A000B3010008B3010008B3010008B301000860
:1000B000B3010008B3010008B3010008B301000850
:1000C000B3010008B3010008B3010008B301000840
:1000D000B3010008B3010008B3010008B301000830
:1000E000B3010008B3010008B3010008DFF80CD029
:1000F00000F064F80048004785080008100500205B
:10010000224B19680868B0E8F00F80F30988BFF344
:100110006F8F4FF0000080F311884EF00D0E704786
:100120000000000006480068006880F3088862B696
:1001300061B6BFF34F8FBFF36F8F00DF00BF00BF0B
:1001400008ED00E0EFF30980BFF36F8F0F4B1A68E3
:1001500020E9F00F106008B54FF0BF0080F3118860
:10016000BFF34F8FBFF36F8F00F090FC4FF0000094
:1001700080F31188BDE8084019680868B0E8F00FFE
:1001800080F30988BFF36F8F704700BF0400002021
:10019000EFF3058070470000064880470648004797
:1001A000FEE7FEE7FEE7FEE7FEE7FEE7FEE7FEE727
:1001B000FEE7FEE75D040008ED000008064C074D71
:1001C00006E0E06840F0010394E807009847103427
:1001D000AC42F6D3FFF78EFF7C0C00089C0C0008A5
:1001E0002DE9F041024600250026002000230024CE
:1001F000002791F803C00CF00F0591F803C00CF034
:10020000100CBCF1000F03D091F802C04CEA0505B8
:1002100091F800C0BCF1000F31D0146800202BE031
:100220004FF0010C0CFA00F3B1F800C00CEA030621
:100230009E4220D183004FF00F0C0CFA03F7BC4311
:1002400005FA03FC4CEA040491F803C0BCF1280F42
:1002500006D14FF0010C0CFA00FCC2F814C00AE001
:1002600091F803C0BCF1480F05D14FF0010C0CFA16
:1002700000FCC2F810C0401C0828D1D31460B1F8AB
:1002800000C0BCF1FF0F34DD546800202EE000F107
:10029000080C4FF0010808FA0CF3B1F800C00CEAA2
:1002A00003069E4221D183004FF00F0C0CFA03F796
:1002B000BC4305FA03FC4CEA040491F803C0BCF10A
:1002C000280F05D100F1080C08FA0CF8C2F81480C8
:1002D00091F803C0BCF1480F07D100F1080C4FF0B2
:1002E000010808FA0CF8C2F81080401C0828CED388
:1002F0005460BDE8F08141617047016170470000C2
:1003000029B1064AD2690243044BDA6104E0034A88
:10031000D2698243014BDA6170470000001002404D
:1003200029B1064A92690243044B9A6104E0034AE8
:1003300092698243014B9A617047000000100240AD
:1003400010B500F001F810BD0CB500200190009030
:100350003348006840F480303149086000BF3048BD
:10036000006800F4003000900198401C0190009853
:1003700018B90198B0F5A06FF1D12948006800F4D0
:10038000003010B10120009001E0002000900098A2
:10039000012843D12348006840F01000214908603B
:1003A0000846006820F0030008600846006840F036
:1003B000020008601A4840681949486008464068C9
:1003C00048600846406840F48060486008464068DD
:1003D00020F47C1048600846406840F4E81048600B
:1003E0000846006840F08070086000BF0C48006854
:1003F00000F000700028F9D00948406820F00300A0
:10040000074948600846406840F00200486000BF65
:100410000348406800F00C000828F9D10CBD00002A
:10042000001002400020024010B500BFBF2080F342
:100430001188BFF34F8FBFF36F8F00BF00F056FBE3
:1004400018B14FF080500449086000BF002080F3CD
:10045000118800BF10BD000004ED00E010B5134886
:10046000006840F0010011490860084640681049E2
:1004700008400E494860084600680E4908400B498C
:1004800008600846006820F480200860084640683C
:1004900020F4FE0048604FF41F008860FFF750FF13
:1004A0004FF000600449086010BD000000100240D9
:1004B0000000FFF8FFFFF6FE08ED00E021B1028822
:1004C00042F08002028004E002884FF67F731A40F7
:1004D0000280704721B1028842F00102028004E0EC
:1004E00002884FF6FE731A400280704731B1B0F8AF
:1004F000442042F40042A0F8442005E0B0F8442033
:10050000C2F30E02A0F844207047000070B500242A
:1005100000220023058C4FF6FE7635400584028CC0
:100520008388048B4FF68F752C40B51E2C400D88A8
:100530002C43751E2A400D892A434D882A43144DA9
:10054000A8420BD0134DA84208D0134DA84205D0A5
:10055000124DA84202D0124DA84213D14FF6F775A2
:100560002A404D892A434FF6FB752A408D882A433D
:100570004FF6FF652B404FF6FF552B408D892B43DF
:10058000CD892B4383800483CD888586028470BD0A
:10059000002C014000340140004001400044014073
:1005A000004801400A460021018B4FF6F7731940BD
:1005B000114301837047000070B50022002300241E
:1005C000058C4EF6FF7635400584038C8488828B3B
:1005D00048F6FF752A404FF6FF452A400D884FF632
:1005E000FF7606EA05252A434DF6FF752B400D8957
:1005F00006EA05352B434D8806EA05352B430B4D9E
:10060000A84202D00A4DA84208D14BF6FF752C40F3
:100610008D894FF6FF7606EA85152C438480828308
:10062000CD88A0F84050038470BD0000002C01402C
:10063000003401400A460021818B4FF2FF731940BC
:100640004FF6FF7303EA02231943818370478186C3
:100650007047A0F840107047002202881D4B984256
:100660000ED01D4B98420BD0B0F1804F08D01B4BE1
:10067000984205D01A4B984202D01A4B984204D1A6
:100680004FF68F731A404B881A43174B984207D086
:10069000164B984204D04FF6FF431A40CB881A43BA
:1006A00002808B8883850B8803850A4B98420BD088
:1006B000094B984208D00E4B984205D00D4B9842FA
:1006C00002D00D4B984201D10B7A0386012383821D
:1006D00070470000002C014000340140000400403D
:1006E00000080040000C00400010004000140040D2
:1006F00000400140004401400048014002E008C8B9
:10070000121F08C1002AFAD170477047002001E08B
:1007100001C1121F002AFBD17047000010B54FF431
:1007200000710748FFF7E9FD0220064908700648F6
:100730000078002803DD0448007800F07DF910BD42
:1007400000080140010000200000002010B5002139
:100750000348FFF77CFF00200249087010BD00002D
:10076000002C01400000002000B5034603B900BD85
:1007700003E04FF47A7000F006F8181EA3F10103AD
:10078000F7D100BFF3E700EBC001C900491E4FF0ED
:10079000E0225161002191610521116100BF4FF0FC
:1007A000E021096901F480310029F8D000214FF0DF
:1007B000E02211617047000010B54FF40071074846
:1007C000FFF799FD012006490870064800780028C7
:1007D00003DD0448007800F02FF910BD0008014047
:1007E000010000200000002010B5002000F03CF9BE
:1007F00010BD000000B589B001210420FFF790FD75
:1008000001210846FFF77CFD0820ADF820001820E4
:100810008DF8230003208DF8220008A91848FFF75F
:10082000DFFC6320ADF818004720ADF8140000206D
:10083000ADF81A00ADF8160005A94FF08040FFF79B
:100840000BFF6020ADF804000120ADF80600002089
:10085000ADF80C00ADF80A0001A94FF08040FFF799
:10086000ABFE0821C806FFF7E5FE01218807FFF768
:1008700025FE01218807FFF72DFE09B000BD00000D
:100880000008014010B5FFF7E9FD00F067F8FFF739
:1008900093FF322000F0D0F840F6B830FFF764FF45
:1008A000502000F0C9F840F6B830FFF75DFFFFF7C1
:1008B00035FF1E2000F0C0F840F6B830FFF754FFB7
:1008C000FFF744FF4FF4FA60FFF74EFF00F01CF80B
:1008D00040F6B830FFF748FFFFF78CFF1E2000F00E
:1008E000C3F84FF47A70FFF73FFF502000F0BCF8D8
:1008F0004FF47A70FFF738FFFFF776FF4FF47A7006
:10090000FFF732FF002010BD10B50748007800281F
:1009100004DD0548007800F08FF804E0322000F094
:100920008BF8FFF749FF10BD000000200948006860
:10093000006808B9012000E0002020B14FF0FF302E
:100940000549086005E003480068C068006802497E
:1009500008607047080000203400002000B589B00E
:10096000012140F60400FFF7DBFC4FF48070ADF886
:10097000200018208DF8230003208DF8220008A9FC
:100980002948FFF72DFC4FF40070ADF8200010202F
:100990008DF8230003208DF8220008A92248FFF7D4
:1009A0001FFC4FF400712048FFF7A5FC40F2E73030
:1009B000ADF8180040F2CF20ADF814000020ADF8DB
:1009C0001A00ADF8160005A91848FFF745FE60208B
:1009D000ADF804000120ADF806000020ADF80800D5
:1009E000ADF80A00ADF80C00ADF80E004FF48070C1
:1009F000ADF810000020ADF8120001A90B48FFF778
:100A000085FD08210948FFF7CDFD01210748FFF7C3
:100A100061FD01210548FFF769FD002004490870C8
:100A20000449087009B000BD00080140002C0140D5
:100A3000000000200100002070B50446642C00DD99
:100A4000642440F2E7306043642190FBF1F085B20A
:100A500029460348FFF7FBFD0248047070BD000003
:100A6000002C01400000002070B50446642C00DD1D
:100A7000642464206043642190FBF1F085B2294630
:100A80004FF08040FFF7E5FD70BD000012480068A0
:100A900018B10120114908601DE000200F490860CD
:100AA0000F480068B0FA80F0C0F11F0101EB81022D
:100AB0000C4B03EB820042685268426000F108026E
:100AC0004368934202D14268526842604268D268E9
:100AD000054B1A6000BF704740000020280000202E
:100AE0001C00002044000020040000202DE9F041FB
:100AF00000275748006800287ED156480068451CEA
:100B0000544805608DB95448D0F8008053480068B7
:100B1000514908605148C0F8008051480068401CA5
:100B20004F490860FFF702FF00BF4E48006885424A
:100B300076D300BF48480068006808B9012000E08B
:100B4000002020B14FF0FF304649086067E042487E
:100B50000068C068C4686668B54202D24148066051
:100B60005DE06069D4E902128A60D4E902214A603A
:100B7000211D42688A4201D1E16841600022626120
:100B80000168491E0160A06A98B1A06AD4E9071201
:100B90008A60D4E907214A6004F1180142688A4258
:100BA00001D1216A41600022A2620168491E0160F0
:100BB00000BF94F82C10012088402B490968084395
:100BC00029490860E16A01EB8101284A02EB8101B1
:100BD0004868A0608268E260211D8268516081607F
:100BE000E16A01EB8101214A02EB81026261E16A63
:100BF00001EB81011D4A00E022E052F82110491C5E
:100C0000E26A02EB8202194B43F822101849E06AAB
:100C10000968C96A88428DD901278BE700E000BFC7
:100C200013480068C06A00EB8000104951F82000AA
:100C3000012800D901270F48006800B1012704E00E
:100C40000D480068401C0C4908603846BDE8F0813A
:100C50004000002018000020080000200C000020A8
:100C60002C000020340000201C0000204400002044
:100C70000400002028000020240000209C0C000814
:100C80000000002044000000FC060008E00C000802
:100C900044000020CC0400000C0700080000000005
:100CA0000000000000000000000000000000000044
:100CB0000000000000000000000000000000000034
:100CC0000000000000000000000000000000000024
:100CD0000000000000000000040000000000000010
:04000005080000ED02
:00000001FF
